:1000000068040020E9190000E5190000E519000066
:1000100000000000000000000000000000000000E0
:10002000000000000000000000000000E5190000D2
:100030000000000000000000E5190000E5190000C4
:10004000E5190000E5190000E5190000E5190000B8
:10005000E5190000E5190000E519000000000000A6
:10006000E5190000E5190000E5190000E519000098
:10007000E5190000E5190000E5190000E519000088
:10008000E5190000E5190000E519000010B5064C5F
:100090002378002B07D1054B002B02D0044800E049
:1000A00000BF0123237010BD0C00002000000000E1
:1000B00070210000084B10B5002B03D007490848F9
:1000C00000E000BF07480368002B00D110BD064BBD
:1000D000002BFBD09847F9E700000000100000203B
:1000E00070210000702100000000000000B583B006
:1000F00001A901234B7000228A700B701020024B63
:10010000984703B000BDC0466912000030B591B0F9
:10011000244C1823237000236370A37001A90122CB
:100120004A708B700A7018201F4B98472378D909A2
:100130000022002904D15A09D2011C498C4662448C
:100140001F211940012318008840906102AC2370E0
:1001500000250395049525746574A374E3742575CF
:100160002333E5540C22002108A8114B9847E56081
:10017000104BA362104BE36201235B422363636372
:100180000E4BA3610E4D22000E4928000E4B9847DE
:100190002A68D369002BFCD1136802210B4313603A
:1001A00011B030BD58000020691200000044004129
:1001B000E11E00000200160002001700001BB7003D
:1001C0004C000020000C0042990D0000034B1B68FE
:1001D0001A7ED20700D598627047C0464C000020B6
:1001E000F8B5070080225202084B5A61084E094DAB
:1001F000012231002800084CA0473800074B9847DF
:10020000002231002800A047F8BDC046004400414C
:10021000580000204C000020CD100000CD0100004F
:10022000F8B5070080225202084B9A61084E094D2A
:10023000012231002800084CA0473800074B98479E
:10024000002231002800A047F8BDC046004400410C
:10025000580000204C000020CD100000CD0100000F
:10026000F0B583B00400802252020B4B9A610B4E12
:100270000B4D0122310028000A4FB8470194200A93
:10028000094CA0476B461879A0470022310028008E
:10029000B84703B0F0BDC0460044004158000020FC
:1002A0004C000020CD100000CD01000070B50120F1
:1002B0006E4DA84732206E4EB0471120A84705204A
:1002C000B047B120A84701206A4CA0472C20A04786
:1002D0002D20A0470120B047B220A8470120A04709
:1002E0002C20A0472D20A0470120B047B320A847CD
:1002F0000120A0472C20A0472D20A0470120A04787
:100300002C20A0472D20A0470120B047B420A847AB
:100310000720A0470120B047C020A8470A20A047D7
:100320000220A0478420A0470120B047C120A84751
:10033000C520A0470120B047C220A8470A20A047F7
:100340000020A0470120B047C320A8478A20A0472B
:100350002A20A0470120B047C420A8478A20A047F0
:10036000EE20A0470120B047C520A8470E20A04797
:100370000120B0472020A8473620A847C820A04722
:100380000120B0473A20A8470520A0470120B047E8
:100390002A20A8470020A0470020A0470020A0470F
:1003A0007F20A0470120B0472B20A8470020A0476E
:1003B0000020A0470020A0479F20A0470120B04771
:1003C000E020A8470220A0471C20A0470720A04704
:1003D0001220A0473720A0473220A0472920A0475D
:1003E0002D20A0472920A0472520A0472B20A0474B
:1003F0003920A0470020A0470120A0470320A047A4
:100400001020A0470120B047E120A8470320A047C3
:100410001D20A0470720A0470620A0472E20A04768
:100420002C20A0472920A0472D20A0472E20A04700
:100430002E20A0473720A0473F20A0470020A047FC
:100440000020A0470220A0471020A0470120B0476D
:100450001320A8470A20B0472920A8476420B047A6
:100460003620A847C020A04770BDC046E10100006B
:10047000B10A000021020000F0B583B004000E00B4
:10048000170001932A20084DA8472000074CA047D9
:100490003800A0472B20A8473000A0470198A0476C
:1004A0002C20A84703B0F0BDE1010000610200006C
:1004B00070B514004B1C9BB2421C92B2024DA8476F
:1004C0002000024B984770BD7904000061020000D3
:1004D000F8B500248EB285B2044FA1B232002800D4
:1004E000B8470134A02CF8D1F8BDC046B1040000D3
:1004F000F8B500248EB285B2044FA0B232002900B4
:10050000B8470134802CF8D1F8BDC046B1040000D2
:10051000F0B5DE4657464E464546E0B585B00391F8
:1005200001930EAB00241B5F029380231B1A072B41
:1005300037DDA0235B1A072B33DD203AD2B29300BC
:100540009A181B4B9B46934486B2731D9BB29846E8
:10055000184B9A46994600961CE06B461A89210072
:100560000098D04701350134A4B2082D09D03300DA
:100570002B411F42F1D06B469A8821000098C84752
:10058000F0E701239C46E344009E0136B3B200939A
:10059000434506D05B461E786B469C8900250127A3
:1005A000E5E705B03CBC90469946A246AB46F0BD97
:1005B000F01E0000B1040000F0B585B002911700F4
:1005C00003930AAB00269E5F1278002A0DD084B2F6
:1005D0000137074D20B20096039B0299A8473A784D
:1005E0000534A4B20137002AF4D105B0F0BDC046ED
:1005F0001105000070B50600A02380220021002014
:10060000054CA047A024E401044D3000A847013C5C
:10061000002CFAD170BDC0467904000061020000D0
:10062000F0B5DE4657464E464546E0B591B005006A
:100630000C00160029600800AD4B984702002368A3
:100640000520DB0706D511B03CBC90469946A24672
:10065000AB46F0BD236817309B07F4D4A549086A60
:10066000971C0123BB4003430B620FA92D27F35DA9
:100670000B700E32D3B2029318009F4B984702982A
:100680009E4B9847F05D00219D4B9847F37A6B7124
:100690002423F35CAB712523F35CEB71F37E2B72A7
:1006A000337F6B722B6898461800914B98470E3039
:1006B00000220E2306A98C4663441A80328A0292D5
:1006C0008023DB019A4200D19FE00FD9C023DB01D8
:1006D000029A9A4200D193E080231B029A4200D0F2
:1006E00001E1032306930023079308E080239B0185
:1006F0009A4200D0F7E0102306930F3B079333682C
:100700009B46F368049373699A46337E05932623C8
:10071000F35C039373689946002B00D1A1E080231A
:100720005B05994500D185E0737E002B02D0B37E36
:10073000424693732A68029FD369002BFCD10E3383
:1007400006AA944663441B88424693815B46049AFA
:100750001343524613434A4613431F43059B1B0250
:100760001F43039B5B071F432723F35C002B01D12F
:1007700004331F43737E9B02327F52021343727F06
:10078000120213432422B25C520413432522B25CAA
:1007900012041343B17AF27A114319433389FF2BC0
:1007A00000D182E080225204174319432C23F35CCA
:1007B000002B03D1534B9B789B0701D580231F430C
:1007C0002A68D369002BFCD1434659602A68D36953
:1007D000002BFCD143461F600EAB80221A70002212
:1007E0005A70DA709A70336B0A93736B0B93B36B16
:1007F0000C93F36B02930D9300270AAD424E63E016
:1008000008230693073B079379E733689B46F36811
:10081000049373699A46337E05932623F35C03930E
:1008200073689946002B18D080235B05994501D049
:10083000002025E02723F35C002B00D074E7336A07
:100840001F00C0B2314B984701000E2206AB9C46F8
:10085000624438002E4B984712E008230693002389
:1008600007932723F35C002B0ED0069B0093079B76
:100870000E2206A98C466244B16A306A254FB847F9
:10088000002800D0DFE64FE7336A1F00C0B21F4BDD
:1008900098470100069B0093079B0E2206A88446FA
:1008A000624438001B4FB847EAE7F37E002B00D1C3
:1008B0007CE78023DB041F4378E72000164B984732
:1008C00007E00137042F0CD0F9B2BB0058590028BB
:1008D000F3D0431CF5D00EA90870000CC0B2B0478D
:1008E000EFE70020AFE6102306930023079306E707
:1008F000610D0000000400408D1800000118000088
:10090000550C00000020004185190000A9180000C6
:10091000970B0000C10B0000A10C0000C3791C2242
:10092000002B01D1100070470368187E173AC007EA
:10093000F8D5DA69002AFCD1198502211A7E0A420B
:10094000FCD00022EEE782791C23002A01D1180096
:1009500070470268107E173B4007F8D5D369002B1B
:10096000FCD1538BDBB298061DD0980703D5022328
:1009700053831833EBE7580703D5042353831A3303
:10098000E5E7D80703D5012353831233DFE7D80601
:1009900003D5102353833233D9E79B0603D5202395
:1009A00053832133D3E7138D0B800023CFE700005F
:1009B000F0B5CE46474680B583B0050001911720BB
:1009C000002A04D103B00CBC90469946F0BDEB79E7
:1009D0000530002BF6D02C68E369002BFCD1013ADE
:1009E00093B29946002601271F4B984611E0731CCD
:1009F0009BB2019A915D6A79012A17D089B21E00D3
:100A000028001A4B98474B46013B9BB299464345F9
:100A100013D0237E3B42EAD1134B227E3A42E6D1E9
:100A2000012B19D0013B002BF7D1E0E70236B6B21B
:100A3000019AD35C1B021943E2E7237E9B070DD486
:100A4000094B0221227E0A420AD1012B0AD0013B26
:100A5000002BF7D10020B5E71220B3E70020B1E763
:100A60000020AFE71220ADE7FFFF00001D090000E6
:100A700070B50020084B98470500084CFA21890002
:100A8000A047074B186007492800A047064B18608D
:100A90000522064B1A6070BD751700002D1D000061
:100AA0000000002040420F000400002010E000E0A1
:100AB00030B5084B1C68084A0025802149020138DE
:100AC00007D3002CFBD05460956013680B42FCD018
:100AD000F5E730BD0000002010E000E0F0B5DE4694
:100AE00057464E464546E0B587B08046049116000D
:100AF0001F000022002300218B463F2401202100FB
:100B0000009601975C4603944446059413E0202424
:100B1000641A0500E540A84614E0009C019D121BE4
:100B2000AB415C464D462C43A346039C45462C43B3
:100B30000394013925D3202464420C19E7D405001D
:100B4000A540A84604008C40A14692185B411400C1
:100B50001D00059E4F463E40B446049E47463E401B
:100B6000B246664657463E4303D00600264332004F
:100B70002B00009C019D9D42DBD8CED19442D8D859
:100B8000CBE7039B5846190007B03CBC90469946FA
:100B9000A246AB46F0BD10B549084023002481426F
:100BA00002D2180010BD1C00091A631C9BB28842B7
:100BB000F9D94023FF2CF4D814800023F1E700007A
:100BC000F0B583B00F00160008AA117804004C435A
:100BD0004022BC4202D9100003B0F0BD002B14D15A
:100BE000020008000021194CA04701003A00002330
:100BF0000020174CA04700220123121A8B41120C2F
:100C00001B041A4332800022E5E70022012BF9D1B0
:100C10000A00002300210D4CA04702000B000092A7
:100C20000193380000210A4CA047050080239B0156
:100C300040229842CFD8790FF800009A019BA04734
:100C4000EA00821AD2B252032A43DBE7451E0000B3
:100C5000DD0A000010B582B004000E4B1B78002B9B
:100C600007D0002905D10B4B5B78834210D01D20A3
:100C70000CE001A90C700D20074B98470D20074B85
:100C80009847044B5C7001221A70002002B010BD1E
:100C90000020FBE7280000208D180000011800004C
:100CA000204B984217D0204B984224D01F4B98429B
:100CB00001D000207047012907D000292BD002293C
:100CC00005D0032905D00020F4E71948F2E71948B8
:100CD000F0E71948EEE7012907D000291DD00229C5
:100CE00005D0032905D00020E4E71448E2E71448C2
:100CF000E0E71448DEE7012907D000290FD00229D8
:100D000005D0032905D00020D4E70F48D2E70F48CB
:100D1000D0E70F48CEE70F48CCE70F48CAE70F48A7
:100D2000C8E7C046000C0042001000420008004224
:100D3000030005000300060003000700020017007F
:100D400003001E0003001F00030017000300100033
:100D5000030019000300040002001600030016003F
:100D600030B585B001AA0B4B32CB32C20300019AD9
:100D700082420CD0029A824207D00020039A9A4203
:100D800001D005B030BD023002E0012000E00020BB
:100D9000C0B2F6E7D0200000F0B5D6464F4680B589
:100DA0008BB081460F001400030019600B689B078D
:100DB00009D40B680520DB0700D4B1E00BB00CBCF4
:100DC00091469A46F0BD936A0593D36A0693136BD6
:100DD0000793536B0893002605AB01930AE0380094
:100DE000AF4B98470CE00F23184081422DD10136BC
:100DF000042E2FD0F1B2B300019A98580028EED0FB
:100E0000431CF4D00104090C000CC3B29C4600231F
:100E1000020605D463465B09DB01A24A92465344AD
:100E20001F22604602409818403000788246802099
:100E30005546ED07D9D552089B1830331878C0B203
:100E40006346DB07CFD50009CFE700234A4613608E
:100E50001C20B3E70D20944B984722780025012AE7
:100E600016D02178002927D13B68E27F1204A07FA9
:100E700002431C209A42A1D1A369A28B0430205CBA
:100E8000002801D040200243082003431D4314E002
:100E900004AA0100A069854B984703001720002B86
:100EA00000D08BE73B7BDBB204AA127805309A4274
:100EB00000D083E70C35D4E700226368A0680343C1
:100EC000E06803432B43207C0243607C002801D070
:100ED00080200343A07C002802D0802080020243AF
:100EE000E07C002802D0802080000243207D002882
:100EF00002D0802080010243386802252B438342C0
:100F000004D000234A4613601C2057E77B689342B5
:100F1000F7D14B465971237C4A46937100204DE727
:100F20000800634B9847634A116A851C0123AB4054
:100F30000B43136209A92426A35D0B700E30C5B2C2
:100F400028005D4B984728005C4B9847A05D002126
:100F50005B4B98472378012B20D02378002B03D1BB
:100F60003B68082213433B604B461E6804AB80225B
:100F70001A7000225A7001219970DA702378002BC0
:100F800001D104AB9A70A36A0593E36A0693236BBD
:100F90000793636B0893002705AD11E03B680C22B3
:100FA00013433B60D9E730003D4B98470DE004A95F
:100FB0000870000CC0B2434B98470137042F07D08C
:100FC000F9B2BB0058590028EDD0431CEFD1F4E72B
:100FD00023784A465371237C9371A37CD371237D7C
:100FE0001372002202ABDA802378012B12D023780F
:100FF000002B27D1A069A28B736AE17F0904A57F2A
:101000002943194371622023E35C002B1CD0402349
:101010001A4319E04B461868254B98470E30C0B26A
:10102000214B9847010002AB9A1DA0691F4B9847BE
:1010300003001720002B00D0C0E602AB06331B785C
:101040003373D4E7002200206368A1680B43E16892
:101050000B430343217C0A43617C002903D11A49D5
:101060008978890701D580210B43A17C002902D012
:10107000802189020A43E17C002902D08021890075
:101080000A43217D002902D0802189010A43316869
:101090000B43336073681A43726000208EE6C046CB
:1010A000A10C000000440041A9180000970B0000AB
:1010B000610D0000000400408D18000001180000C0
:1010C000550C0000851900000020004110B544793E
:1010D0001523012C01D0180010BD047A0023002C28
:1010E000F9D1002A58D04B78002B44D003681B7EDE
:1010F000DB0710D40A78D1090023002904D1530951
:10110000DB012E498C4663441F21114001228A4095
:101110009A610523DFE70A78D4090023002C04D163
:101120005309DB01254CA44663441F2414400122CB
:10113000A2405A6103681A7ED20701D58A789A6262
:10114000C2790023002AC6D102680421137E0B4213
:10115000FCD0117E00234907BDD5538B5B0701D519
:10116000042353838379012B02D0936A0023B2E7CF
:10117000936A0023AFE70A78D1090023002904D13C
:101180005309DB010D498C4663441F2111400122A4
:101190008A405A6100239EE70A78D109002300297A
:1011A00004D15309DB0105498C4663441F211140DA
:1011B00001228A409A6100238DE7C0460044004125
:1011C0000C4B1B68002B06D1EFF31083002B07D0CC
:1011D0000022094B1A70074A1368013313607047E5
:1011E00072B6BFF35F8F0022044B1A700132024BBC
:1011F0001A70F0E72C0000203000002008000020CA
:10120000084B1A68013A1A601B68002B09D1064B7B
:101210001B78002B05D00122044B1A70BFF35F8F9F
:1012200062B670472C00002030000020080000202B
:10123000F0B583B001AC012565700027A77025705B
:1012400021000920064EB04780229200054B5A61CA
:101250002770657021001920B04703B0F0BDC0466B
:10126000691200000044004100B583B001AB802248
:101270001A700A785A704A789A708A78DA70190067
:10128000014B984703B000BD8519000010B5082830
:1012900003D880001C4B1B589F46002032E01B4B9C
:1012A00018692FE01A4B1B6A9B059B0F1948D84001
:1012B00028E0164B586925E0144B1B6800209B075B
:1012C00020D513491022CB681A42FCD00F4B1A6864
:1012D00024231340042B01D00F4813E000200F4BB0
:1012E00098470A4B9B681B041B0C58430AE0502389
:1012F000074AD35C00205B0704D5044BD86801E0A3
:101300008020000210BDC046DC2000003400002018
:101310000008004000127A00006CDC02A9180000EE
:1013200070B50C490B6A047885784078012210402A
:1013300080014026B34303432A40D20180208343E7
:1013400013430322224012020348034013430B625B
:1013500070BDC04600080040FFFCFFFFF0B5CE4660
:10136000474680B5194B99469B6941788C4605786C
:101370000679C778447980780121084080000422EA
:101380009343034360460840C00004329343034341
:101390003800084080014027BB4303433000084029
:1013A000C0018026B3430343072005402D020848AF
:1013B00003402B4321400903064803400B434A46A0
:1013C00093610CBC90469946F0BDC04600080040B1
:1013D000FFF8FFFFFFEFFFFF10B5037A9B061B0C22
:1013E00042899205920D134318494B608379C27963
:1013F000134342888488224313434278D201134323
:101400000B600378042B11D0202B0ED1037B9B069D
:10141000028A1343C28912040D490A4013430B4A3E
:10142000936011680B4B0B43136010BD037B9B064D
:10143000028A1343C289120405490A401343034A2E
:101440009360136804210B431360EEE7340000201F
:101450000000FF0324040000082803D88000254B67
:101460001B589F46172044E0234A136A02210B436E
:10147000136200203DE0204A936902210B439361EF
:10148000002036E01C4A138A02210B4313820020FD
:101490002FE0194A938A02210B439382002028E00F
:1014A00016490B68022213430B60134B9A841900F0
:1014B0000E32CB681A42FCD0104A91680E4BD962AA
:1014C00052689A6200229A8419001032CB681A423C
:1014D000FCD00A4B1B689BB2074A9384002008E0AB
:1014E000054944228B5C022003438B54002000E01A
:1014F0000020704700210000000800403400002058
:10150000F0B58DB0C222D200444B9A6044494B687A
:101510001E2293431C3A13434B6001AB1A70002404
:10152000404DE0B201A9A8470134182CF9D13E4C36
:101530002368DB0439498A695B0E1B043B4802407F
:1015400013438B610AA80123437083700025C57083
:101550000371063303704571354B98470420354BB2
:10156000984705AB00225D809D809A71DA713F211A
:1015700059813B3919705A7023689B0E3F2B4BD011
:1015800005A80372B723DB000382072303733833F4
:10159000C381294B984704A8002545700126867011
:1015A0000570264B98470620224FB847244B984792
:1015B00001AC0296657025726572042323702100C8
:1015C0000120204B984701201F4B9847267021008F
:1015D0000020144B984700201C4B98470720B84721
:1015E0000E49D022CB681340D02BFBD1184A0023E0
:1015F000137253729372D37201A901224A604B7025
:101600000B724B7207330B7000200E4B9847002073
:101610000D4B98470DB0F0BD203BB1E700080040EE
:10162000004000418D18000024608000FFFF80FF13
:101630005D13000059140000D913000021130000AD
:10164000551600007916000031170000011800003F
:1016500000040040064A936908210B43936101226C
:10166000044B1A7019000B781342FCD17047C04626
:1016700000040040000C004070B5060004000D7826
:101680002D0205434B78002B02D08023DB021D4343
:101690004B7A002B02D080231B031D43486801288E
:1016A00010D9431E184234D1022830D90223002217
:1016B00001325B009842FBD81202324314008023AF
:1016C0005B031D430B7A002B02D080239B031D4339
:1016D000134A53785BB2002BFBDB124B9847124B3B
:1016E0001E700F4A53785BB2002BFBDB0C4B9C60E7
:1016F0001A0053785BB2002BFBDB094A5368802148
:1017000049020B401D435560084B984770BD0022AD
:10171000D2E70402344380239B021D43D2E7C04634
:10172000000C0040C1110000080C00400112000034
:1017300010B504000B4A53785BB2002BFBDB0A4B5D
:1017400098470A4B1C70074A53785BB2002BFBDBAF
:10175000044A516880235B020B435360044B984753
:1017600010BDC046000C0040C1110000040C004038
:101770000112000070B504001A4A53785BB2002BC6
:10178000FBDB194B9847194B1C70164A53785BB218
:10179000002BFBDB134E7068C004C00E144B98473F
:1017A0000500124B1C707668F602F60F114B1C7088
:1017B0000C4A53785BB2002BFBDB0A4B9C6824027B
:1017C000240C0D4B9847002E07D1012C07D921007E
:1017D00028000A4B9847050001E00134E540280045
:1017E00070BDC046000C0040C1110000040C004058
:1017F0008D120000080C0040011200002D1D000099
:1018000010B50400064B9847064B1C70064A5388D7
:101810008021C9010B435380044B984710BDC0463B
:10182000C1110000020C0040000C00400112000039
:1018300010B504000F4B98470F4B1C700F4A53888C
:101840001B05180F53880E490B40538053880D49D0
:101850000B40538011008022D2014B881342FCD1EF
:1018600006494A8803020648024013434B80064B50
:10187000984710BDC1110000020C0040000C004050
:10188000FFF0FFFFFFBFFFFF0112000010B50C7853
:1018900024020443024B9847A4B2024B5C8010BD63
:1018A00031180000000C004010B50400064B9847AA
:1018B000064B1C70064B5C882405240F054B98478B
:1018C0002000054B984710BDC1110000020C0040DC
:1018D000000C0040011200007517000030B5D378ED
:1018E000002B35D11378802B29D01B06802464026D
:1018F000234354780225AC4306D19478002C20D1A0
:101900008024A402234341605478013C012C1CD95B
:101910000D042D0CA024E4052C431C4384620D0C03
:10192000D02424062C431C438462D478002C22D17A
:101930005B031CD59378012B1ED0416117E0002377
:10194000D7E7C024E4022343DDE70D4C2340DFE763
:1019500041600C04240CA023DB05234383620C0CA0
:10196000D0231B0623438362D378002B03D1537803
:10197000013B012B02D930BD8161F8E78160FAE7B4
:10198000FFFFFBFF10B50A00C1090023002904D1A5
:101990004309DB0105498C4663441F242040012193
:1019A00081401800024B984710BDC04600440041DA
:1019B000DD1800007047000010B5054B9847054B37
:1019C0009847054B9847054B9847054B984710BDDE
:1019D0000115000031120000B5190000B519000012
:1019E000B5190000FEE7000010B5264A264B9A42C2
:1019F00011D01A00254B9A420DD2254A03339B1A67
:101A00009B0801339B0000221F481E498C588450BC
:101A100004329A42FAD11F4A1F4B9A420AD2D34348
:101A20001D495B1803218B4304339B18002102C21C
:101A30009342FCD1194AFF21194B8B439360FD3926
:101A400090235B00174AD150174B9A7B2E318A4363
:101A500020210A439A739A7B0C218A4308210A4366
:101A60009A739A7B03218A4302210A439A730F4A8D
:101A7000536880210B4353600D4B98470D4B98479B
:101A8000FEE7C04670210000000000200C0000208E
:101A9000040000200C0000206800002000ED00E0A1
:101AA000000000000070004100480041004000417B
:101AB000991E0000B51B000030B591B08023DB05F6
:101AC000009300230193FF2269460A8100228B7252
:101AD000CB72962189010891012124206C46215462
:101AE0000130215425316354013163540A93053187
:101AF00063540131635405932382E376227622777F
:101B000062761323A376627780235B0303930D4BE6
:101B10000C930D4B0D9301235B420E930F930B4DD2
:101B20000B4C6A460B492800A0470028F9D1074B07
:101B30001A68D369002BFCD1136802210B43136090
:101B400011B030BD03000E0003000F005C00002048
:101B50002106000000100042F0B583B001920C781D
:101B6000292C24D00026002706E00137052F11D0AC
:101B700001368C5D292C1AD02C2CF6D0BD004519CD
:101B80002B689B002A68944663445B001B19303B1A
:101B90002B60EDE78B195B78292B08D0019A023670
:101BA0008E191370337801320136292BF9D103B025
:101BB000F0BD0000F0B5CE46474680B5B7B0484B03
:101BC0009847484B9847484B9847484B9847484B4D
:101BD0009847484B98470020474B984718A9474BD0
:101BE0000A0031CB31C2188810809B7893700F2285
:101BF0004348444B9847002399465E246C44404E2A
:101C0000414D26E01CAA29A903A8404B9847039BF5
:101C1000062B09D89B003E4AD3589F4603AB059933
:101C20000420185E3B4B98475022002103A83A4BF2
:101C300098469847322200211CA8C0474A4629A945
:101C40002F48304B98473222002129A8C047002353
:101C5000994621003000A8470028FAD1237829AA04
:101C600049465354292BCDD04F460137BBB2994634
:101C7000322BEED900239946EBE703AB05990420FC
:101C8000185E264B9847CFE703AB0C215A5E94466B
:101C90001CAA12780820195E0427D85F1027DB5F82
:101CA000009363461E4FB847BEE703AA0C21535E5C
:101CB0000820115E0427D05F1027D25F00921CAA73
:101CC000184FB847B0E76B46188A0B4B9847ABE7FD
:101CD00003AB9A8919899888134B9847A4E7C046A3
:101CE000B9190000710A0000B91A0000ED000000E7
:101CF0000D010000AD020000F505000040210000CC
:101D00005C000020B109000047090000591B0000D9
:101D100024210000F1040000E11E0000D1040000B5
:101D200011050000B9050000B104000000224308BD
:101D30008B4274D303098B425FD3030A8B4244D393
:101D4000030B8B4228D3030C8B420DD3FF220902D5
:101D500012BA030C8B4202D31212090265D0030B94
:101D60008B4219D300E0090AC30B8B4201D3CB038A
:101D7000C01A5241830B8B4201D38B03C01A5241CC
:101D8000430B8B4201D34B03C01A5241030B8B42CE
:101D900001D30B03C01A5241C30A8B4201D3CB02B9
:101DA000C01A5241830A8B4201D38B02C01A52419E
:101DB000430A8B4201D34B02C01A5241030A8B42A1
:101DC00001D30B02C01A5241CDD2C3098B4201D3B9
:101DD000CB01C01A524183098B4201D38B01C01A37
:101DE000524143098B4201D34B01C01A52410309AE
:101DF0008B4201D30B01C01A5241C3088B4201D35D
:101E0000CB00C01A524183088B4201D38B00C01A09
:101E1000524143088B4201D34B00C01A5241411A30
:101E200000D20146524110467047FFE701B500203D
:101E300000F006F802BDC0460029F7D076E77047EB
:101E40007047C046F0B5CE46474615042D0C2E000F
:101E500080B50704140C3F0C9946030C7E435D4388
:101E6000674363437F19340CE4199C46A54203D9A8
:101E700080235B029846C4444B4651434343360497
:101E8000360C250C24046544A4195918491920005E
:101E90000CBC90469946F0BD70B500260C4D0D4C1B
:101EA000641BA410A64209D1002600F051F90A4D86
:101EB0000A4C641BA410A64205D170BDB300EB58B8
:101EC00098470136EEE7B300EB5898470136F2E742
:101ED0005C2100005C2100005C210000602100000A
:101EE00003008218934200D1704719700133F9E75B
:101EF000000000000000005F000000070007001461
:101F00007F147F14242A7F2A12231308646236491F
:101F10005522500005030000001C22410000412210
:101F20001C0014083E081408083E08080050300041
:101F3000000808080808006060000020100804027B
:101F40003E5149453E00427F400042615149462191
:101F500041454B311814127F1027454545393C4AFD
:101F6000494930017109050336494949360649494D
:101F7000291E0036360000005636000008142241A3
:101F8000001414141414004122140802015109060B
:101F9000324979413E7E1111117E7F494949363ED1
:101FA000414141227F4141221C7F494949417F09EA
:101FB0000909013E4149497A7F0808087F00417FAD
:101FC00041002040413F017F081422417F404040B2
:101FD000407F020C027F7F0408107F3E4141413E5A
:101FE0007F090909063E4151215E7F0919294646AC
:101FF0004949493101017F01013F4040403F1F20D5
:1020000040201F3F4038403F6314081463070870A6
:1020100008076151494543007F414100020408100F
:10202000200041417F000402010204404040404042
:10203000000102040020545454787F484444383846
:1020400044444420384444487F3854545418087E4B
:102050000901020C5252523E7F0804047800447D6C
:1020600040002040443D007F1028440000417F4054
:10207000007C041804787C0804047838444444380C
:102080007C14141408081414187C7C0804040848F0
:1020900054545420043F4440203C4040207C1C20A9
:1020A00040201C3C4030403C44281028440C5050F8
:1020B000503C4464544C44000836410000007F000A
:1020C000000041360800100808100800060909063B
:1020D00000080042000C0042001000429E12000066
:1020E0009A1200009A120000001300000013000072
:1020F000B2120000A4120000B8120000EE1200009C
:10210000841400006414000064140000F014000043
:10211000761400009214000068140000A01400005F
:10212000E0140000281C00001C1C00007A1C0000A9
:10213000881C0000AA1C0000C61C0000D01C000067
:1021400048656C6C6F20576F726C64210D0A00003B
:10215000F8B5C046F8BC08BC9E467047B500000004
:10216000F8B5C046F8BC08BC9E4670478D0000001C
:0C217000401F00000800000001000000FB
:04000003000019E9F7
:00000001FF
